:020000040800F2
:1000000000040020470100085501000857010008BE
:10001000590100085B0100085D01000800000000B4
:100020000000000000000000000000005F01000868
:10003000610100080000000063010008650100087C
:1000400067010008670100086701000867010008F0
:1000500067010008670100086701000867010008E0
:1000600033060008670100086701000867010008FF
:1000700067010008670100086701000867010008C0
:1000800067010008670100086701000867010008B0
:1000900067010008670100086701000867010008A0
:1000A0006701000867010008670100086701000890
:1000B000670100084B060008670100086701000897
:1000C0006701000867010008670100086701000870
:1000D0006701000867010008670100086701000860
:1000E0006701000867010008670100086701000850
:1000F0006701000867010008670100086701000840
:10010000670100086701000867010008670100082F
:10011000670100086701000867010008670100081F
:10012000670100086701000867010008670100080F
:10013000DFF80CD001F092FF004800474B050008A3
:1001400040020020704708488047084981F308882A
:1001500007480047FEE7FEE7FEE7FEE7FEE7FEE7AB
:10016000FEE7FEE7FEE7FEE745010008400200204B
:100170003101000801B502E00098401E009000988F
:100180000028F9D108BD3EB505460C46ADF804502F
:10019000ADF800400020ADF80600ADF80200694659
:1001A000FE4801F086F801221146FC4801F022FBCE
:1001B0003EBDFEB505460E46092D00DC3EB9F848A9
:1001C000007820F00100401CF5490870FEBD0024B5
:1001D00004E0305D0DF80400601CC4B2AC42F8DBF2
:1001E00080200DF80500EE48007820F00100401C4A
:1001F000EB49087000242FE00A20EA490870012129
:10020000E64801F0DCFA00BF7121E74800F045FF45
:100210000028F9D0E34800780028F5D17121E248A0
:1002200000F03BFF01280DD10021DC4801F0C7FAA6
:100230000121DA4801F0B2FD1DF80410DA4800F09F
:10024000D9FE07E0D648007820F00100401CD449D0
:100250000870BBE7601CC4B2681C8442CCDBD04889
:10026000007820F00100CE49087000BFAEE710B55D
:100270000A20CC4908700121C84801F0A0FAC848FA
:10028000007820F00200801CC549087008460078FC
:10029000C0F3001000284FD0322000F00DFA0421E6
:1002A000C24800F040FB002846D1BD48007820F04D
:1002B0001000BB4908700A20BA49087000BF01212C
:1002C000B94800F0EAFE0028F9D0B64800780028C6
:1002D000F5D10121B44800F0E0FE012825D100212C
:1002E000AE4801F06CFA0121AC4801F057FDAE4870
:1002F00000F082FEC1B2AE4802780078401CAC4BE0
:100300001870AC488154184600780F2806DDA448C0
:10031000007820F008000830A1490870A048007853
:1003200020F002009E49087010BD9D48007820F022
:100330000200801C9A49087000BFF5E710B502461C
:100340000B460024092A00DC0BB9002010BD002157
:1003500004E0585C2044C4B2481CC1B29142F8DBAE
:100360002046F3E72DE9F04107460C46092F00DC53
:1003700014B90020BDE8F081207810280DD16578EF
:1003800014F80580611C2846FFF7D8FF064646454D
:1003900001D1A078EEE70020ECE70020EAE72DE9A4
:1003A000F04105460E460327092D00DC16B9002052
:1003B000BDE8F08100240FE031462846FFF7F9FE42
:1003C0007748007800F0010000B107E0022C01DB63
:1003D0000020EDE7601CC4B2BC42EDDB00BFFFF7BC
:1003E00046FF6F480078C0F34000C8B96C480078F9
:1003F000C0F38000A0B9002405E06E48005D6E499E
:100400000855601CC4B26A4800788442F5DB6A492A
:1004100067480078FFF7A6FF80460020644908700F
:100420004046C5E7704708B500214FF0006000F076
:100430009EFE4FF4C06000F063FE08208DF80000BF
:1004400000208DF8010001208DF802008DF80300D6
:10045000684600F05AFE1D208DF8000000208DF83F
:10046000010002208DF8020001208DF8030068468B
:1004700000F04BFE08BD00B587B0012141F2050038
:1004800000F05AFCE020ADF8180003208DF81A00A7
:1004900018208DF81B0006A9484800F0B1F910207B
:1004A000ADF818008DF81B0006A9444800F0A8F923
:1004B0000020ADF804004FF48270ADF80600002073
:1004C000ADF80800ADF80A00ADF80C004FF400706C
:1004D000ADF80E001820ADF810000020ADF81200A5
:1004E0000720ADF8140001A92F4800F0B5FC012148
:1004F0002D4800F04EFD07B000BD1CB50221084696
:1005000000F084FA042001F0E2FC00208DF80400E1
:100510000C208DF805000420009001208DF80600C5
:10052000684601F04DFC1CBD10B545F2555001F078
:10053000D9FC032001F0D9FC40F25D1001F0D8FC99
:1005400001F0D9FC01F0DCFC10BD0EB500200090DC
:100550000190029001F058FDFFF765FF41F61F4141
:1005600040F2F310FFF70FFEFFF7C7FFFFF783FF1F
:1005700080208DF8000007208DF8010001208DF803
:10058000020008208DF8080069460920FFF707FFE0
:10059000292848D102208DF8020011E00004004013
:1005A0000200002001000020003001400010014046
:1005B000000000202C0000201C000020000801404A
:1005C00001208DF803000A208DF8080069460920F3
:1005D000FFF7E5FE292826D103208DF80200002030
:1005E0008DF803000A208DF8080069460920FFF7FE
:1005F000D6FE222817D109208DF8020010208DF890
:10060000080069460920FFF7D4FD07208DF8020095
:100610000E208DF8080069460920FFF7C0FE292842
:1006200001D1FFF7FFFEFFF77FFF01E001F063FC60
:10063000FCE710B5042001F04AFC0E48007820F0D9
:10064000100010300B49087010BD10B501210A4888
:1006500001F093FB60B10121074801F09FFB0748BF
:100660000078002804DD05480078401E0349087022
:1006700010BD000002000020000400400100002026
:100680004FF0E021096921F004014FF0E0221161EF
:10069000C21700EB5272C2F3C702234B1A701946FD
:1006A000097801EB4102C2EBC1114FF6FF7202EA79
:1006B000C1011E4A1180704701461C4A12884A43F4
:1006C0004FF0E0235A6100229A6101221A6100BFB3
:1006D0004FF0E022106900F001021AB100F48032FC
:1006E000002AF5D000224FF0E0231A619A6170478A
:1006F00001460D4A12784A434FF0E0235A61002226
:100700009A6101221A6100BF4FF0E022106900F0E7
:1007100001021AB100F48032002AF5D000224FF015
:10072000E0231A619A61704704000020060000204F
:1007300010B50446C649601A8C422FD009DCC54862
:10074000204480B1B0F5806F16D0B0F5006F4AD16B
:100750001BE0B0F5806F2AD0B0F5006F30D0B0F557
:10076000406F40D135E00121042000F0FFFA002164
:10077000042000F0FBFA37E00121082000F0F6FA2F
:100780000021082000F0F2FA2EE00121102000F0F4
:10079000EDFA0021102000F0E9FA25E001212020E7
:1007A00000F0E4FA0021202000F0E0FA1CE0012132
:1007B000402000F0DBFA0021402000F0D7FA13E0DF
:1007C0000121802000F0D2FA0021802000F0CEFA32
:1007D0000AE00121080200F0C9FA00214FF48070FC
:1007E00000F0C4FA00E000BF00BF10BD10B5012149
:1007F000084600F0BBFA0021012000F0B7FA10BD56
:100800002DE9F041024600250026002000230024A7
:10081000002791F803C00CF00F0591F803C00CF00D
:10082000100CBCF1000F03D091F802C04CEA050592
:1008300091F800C0BCF1000F31D0146800202BE00B
:100840004FF0010C0CFA00F3B1F800C00CEA0306FB
:100850009E4220D183004FF00F0C0CFA03F7BC43EB
:1008600005FA03FC4CEA040491F803C0BCF1280F1C
:1008700006D14FF0010C0CFA00FCC2F814C00AE0DB
:1008800091F803C0BCF1480F05D14FF0010C0CFAF0
:1008900000FCC2F810C0401C0828D1D31460B1F885
:1008A00000C0BCF1FF0F34DD546800202EE000F1E1
:1008B000080C4FF0010808FA0CF3B1F800C00CEA7C
:1008C00003069E4221D183004FF00F0C0CFA03F770
:1008D000BC4305FA03FC4CEA040491F803C0BCF1E4
:1008E000280F05D100F1080C08FA0CF8C2F81480A2
:1008F00091F803C0BCF1480F07D100F1080C4FF08C
:10090000010808FA0CF8C2F81080401C0828CED361
:100910005460BDE8F0814FF6FF71018002218170C3
:100920000421C17070470246002093680B400BB150
:10093000012000E0002070470146886880B27047BF
:1009400002460020D3680B400BB1012000E00020DC
:1009500070470146C86880B27047016170474161C5
:1009600070470AB1016100E041617047C1607047A2
:100970004FF480320A4382618161826182698269B7
:10098000704702460020344B18684FF680731840B9
:1009900040EA02100843304B186070472F49C86185
:1009A0007047F0B50A4600230024002100252A4E96
:1009B0007168C0F3034583B200F44016B6F5401FDA
:1009C00008D121F07061244E766826F07066224FBF
:1009D0007E6012E000F48016B6F5801F06D1032673
:1009E00006FA05F4A14341F0706106E0460D3601B8
:1009F00003FA06F6B14341F0706122B1460D3601AB
:100A000003FA06F63143144E7160F0BD30B5002292
:100A10008B071C0F0F2303FA04F20F4B08338C10C3
:100A200053F8243093430C4C08348D1044F825308F
:100A300023468C1053F824308C07240F00FA04F45A
:100A40002343054C08348D1044F8253030BD000098
:100A50000014014000F8FEBF0000014000002042E9
:100A6000DE48006840F00100DC4908600846406844
:100A7000DB490840D949486008460068D949084020
:100A8000D64908600846006820F4802008600846BF
:100A9000406820F4FE004860002088607047CF491D
:100AA000096821F48031CD4A11601146096821F4AA
:100AB00080211160B0F5803F03D0B0F5802F0ED1BA
:100AC00006E0C649096841F48031C44A116007E074
:100AD000C249096841F4A021C04A116000E000BF8A
:100AE00000BF704710B501460022002300204A11C4
:100AF000012A02D1B94C236806E0022A02D1B74C80
:100B0000236A01E0B54C636A01F01F02012494409E
:100B10001C400CB1012000E0002010BD38B50020C1
:100B200000900024002500BF3120FFF7DBFF0546C1
:100B30000098401C00901DB90098B0F5A06FF3D14B
:100B40003120FFF7CFFF08B1012400E00024204648
:100B500038BD01460020A14A106820F0F80040EAA4
:100B6000C10010607047A04908607047024600202D
:100B70009A4B586820F47C1042EA01031843974BC3
:100B80005860704798490866704701460020934AAC
:100B9000506820F003000843506070478F48406859
:100BA00000F00C007047014600208C4A506820F08D
:100BB000F00008435060704701460020874A5068A3
:100BC00020F4E06008435060704701460020834AEB
:100BD000506820F4605040EAC1005060704729B16D
:100BE0007E4A527A02437D4B5A7204E07B4A527A23
:100BF00082437A4B5A7270477B49D83108607047FC
:100C000001460020754A506820F440400843506077
:100C100070470021714A20321170704A82F820100A
:100C2000012802D004280AD104E001216B4A2032B5
:100C3000117005E00521694A2032117000E000BF03
:100C400000BF70476949086070476449096A0143F9
:100C5000624A11627047654944390860704730B58F
:100C600000210022002400235C4D6D6805F00C017A
:100C700021B1042905D0082923D105E05C4D056088
:100C800022E05B4D05601FE0544D6D6805F4701265
:100C9000022505EB9242514D6D6805F480341CB974
:100CA000544D554305600BE04C4D6D6805F400351F
:100CB0001DB1504D5543056002E04D4D5543056053
:100CC00002E04B4D056000BF00BF444D6D6805F06C
:100CD000F0010909484D6B5C0568DD4045603F4DFA
:100CE0006D6805F4E061090A434D6B5C4568DD40C1
:100CF00085603A4D6D6805F46051C90A3E4D6B5CE4
:100D00004568DD40C560354D6D6805F44041890B8F
:100D10003A4D6B5CC568B5FBF3F5056130BD29B193
:100D20002E4A526902432D4B5A6104E02B4A526904
:100D300082432A4B5A61704729B1284A926902437B
:100D4000264B9A6104E0254A92698243234B9A61BB
:100D5000704729B1214AD2690243204BDA6104E08D
:100D60001E4AD26982431D4BDA61704729B11B4A82
:100D7000D2680243194BDA6004E0184AD268824311
:100D8000164BDA60704729B1144A12690243134BBB
:100D90001A6104E0114A12698243104B1A617047CC
:100DA00012494039086070470F49C86470470B49C1
:100DB000C87170470948406A40F08070074948622E
:100DC000704701460020054A92680A400AB1012096
:100DD00000E000207047014988727047001002400F
:100DE0000000FFF8FFFFF6FE00004242800442428E
:100DF00000127A0000093D000800002018000020C1
:100E000010B50446BD48204478B1B0F5806F16D0C7
:100E1000B0F5784F1DD101210803FFF7A7FF00218E
:100E20004FF48050FFF7A2FF14E001218803FFF781
:100E3000AAFF00214FF48040FFF7A5FF0AE001213F
:100E4000C803FFF7A0FF00214FF40040FFF79BFF0E
:100E500000E000BF00BF10BD10B50022028802F400
:100E600041520B884C8823438C882343CC882343EE
:100E70000C8923434C8923438C892343CC89234306
:100E80001A430280838B4FF2FF74234083830B8AC3
:100E9000038210BD2DE9F04786B005460C464FF0A1
:100EA000000902274FF000084FF0010A0026A88B26
:100EB0004FF240010840A88302202884B5F81C9016
:100EC0002089022801D100BF31E0A08810B94FF07D
:100ED000010A01E04FF0020A01A8FFF7C0FEE08816
:100EE000B0F5007F0AD1019800EB80004000218915
:100EF0000902B0FBF1F0401D86B20BE04FEA4A1048
:100F000021894843019901EB81014900B1FBF0F0CF
:100F1000401D86B20A20B6FBF0F606F00108A6EBEB
:100F20000800C0F34F074FF6FF7000EA0828022FB1
:100F300001DBFF2F02DD02274FF0000847EA08001F
:100F4000E18808432884208840F4006061880843D1
:100F5000A18808436189084340EA0909A5F81C9063
:100F600006B0BDE8F0870021018041808180C1800A
:100F7000018141818181C181072101827047002166
:100F8000018041808180C180022101810021418155
:100F9000704721B1028842F04002028004E00288DA
:100FA0004FF6BF731A400280704721B1828B42F422
:100FB0008062828304E0828B4FF6FF331A40828383
:100FC000704730B5002400230C110125A540ABB2B9
:100FD0001AB185881D43858002E085889D43858000
:100FE00030BD1AB183880B43838002E083888B4332
:100FF00083807047818170470146888970474FF62A
:10100000FF62914204D0028842F48072028004E0C0
:1010100002884FF6FF631A400280704721B1828830
:1010200042F00402828004E082884FF6FB731A408B
:101030008280704702884FF2FF731A400280028854
:101040000A4302807047018841F480510180704753
:1010500021B1028842F40052028004E002884DF679
:10106000FF731A400280704702460020012901D018
:10107000108B00E0908A70470146088A7047B1F5EE
:10108000804F04D1028842F48042028004E002884A
:101090004BF6FF731A400280704702460020138906
:1010A0000B400BB1012000E000207047CA430281D1
:1010B0007047F0B50246002000240023002501F00F
:1010C0000F070126BE40B4B20B1101269E40B3B2F9
:1010D000968806EA03051689264016B10DB101204F
:1010E00000E00020F0BD10B5002201F00F04012344
:1010F000A3409AB2D343038110BD000000C8FFBFD4
:1011000031490143314A1160704770B50021002315
:101110000F22C47804B32D4C246804F4E064C4F5B1
:10112000E064210AC1F10403CA40447804FA03F1DF
:101130008478144021430901254C0678A155047890
:1011400004F01F050124AC4005786D11AD0005F1D8
:10115000E025C5F8004109E0047804F01F050124EA
:10116000AC401C4D0678761145F8264070BD1A4AF1
:101170000A400243154B1B1F1A60704739B1134ACE
:10118000121D12680243114B1B1D1A6006E00F4A24
:10119000121D126882430D4B1B1D1A6070470428F4
:1011A00008D14FF0E021096941F004014FF0E0223D
:1011B000116107E04FF0E021096921F004014FF0CF
:1011C000E0221161704700000000FA050CED00E01C
:1011D00000E400E080E100E080FFFF1F10B504465E
:1011E000F749601A8C4245D00CDCB4F1804F1DD019
:1011F000F448204418B3B0F5806F29D0B0F5006FE3
:1012000054D12EE0B0F5806F3DD0B0F58E3F03D0C5
:10121000B0F5923F4AD13FE00121C802FFF7A6FD99
:1012200000214FF40060FFF7A1FD40E001210846D6
:10123000FFF7A9FD00210120FFF7A5FD37E00121FF
:101240000220FFF7A0FD00210220FFF79CFD2EE009
:1012500001210420FFF797FD00210420FFF793FDF3
:1012600025E001210820FFF78EFD00210820FFF76F
:101270008AFD1CE001211020FFF785FD00211020D0
:10128000FFF781FD13E001212020FFF77CFD002105
:101290002020FFF778FD0AE001214803FFF766FDF3
:1012A00000214FF40050FFF761FD00E000BF00BFD8
:1012B00010BD028802F08F020280CA884B881A4350
:1012C00003881A4302808A8882850A880285BE4A7A
:1012D000904202D0BD4A904201D10A7A0286012290
:1012E0008282704770B5002400220023058C4FF6DF
:1012F000FE7635400584028C8388048B4FF68F750B
:101300002C400D882C43751E2A400D892A434D8898
:101310002A43CD888586AC4DA84202D0AB4DA84269
:1013200013D14FF6F7752A404D892A434FF6FB75C6
:101330002A408D882A4347F6FF652B4047F6FF5524
:101340002B408D892B43CD892B43838004830284DA
:1013500070BD70B5002400220023058C4FF6EF7697
:1013600035400584028C8388048B48F6FF752C4039
:101370000D884FF6FF7606EA05252C434FF6DF75FC
:101380002A400D8906EA05152A434D8806EA051507
:101390002A43CD8805878C4DA84202D08B4DA842A8
:1013A0001DD14FF67F752A404D894FF6FF7606EA2C
:1013B00005152A434FF6BF752A408D8806EA0515A4
:1013C0002A4347F6FF352B4047F2FF752B408D89A6
:1013D00006EA85052B43CD8906EA85052B438380E4
:1013E0000483028470BD70B5002400220023058CA4
:1013F0004FF6FF6635400584028C8388848B4FF658
:101400008F752C400D882C434FF6FF552A400D89CF
:101410004FF6FF7606EA05252A434D8806EA05259C
:101420002A43CD888587684DA84202D0674DA842DF
:101430001DD14FF2FF752A404D894FF6FF7606EA1F
:1014400005252A434FF6FF352A408D8806EA0525F3
:101450002A4346F6FF752B4045F6FF752B408D89D4
:1014600006EA05152B43CD8906EA05152B43838033
:101470008483028470BD70B5002400220023058C93
:101480004EF6FF7635400584028C8388848B48F6BF
:10149000FF752C400D884FF6FF7606EA05252C4394
:1014A0004DF6FF752A400D8906EA05352A434D8819
:1014B00006EA05352A43CD88A0F84050424DA8429F
:1014C00002D0424DA84207D1C3F30D038D894FF6D8
:1014D000FF7606EA85152B4383808483028470BDE2
:1014E000828B4FF2FF331A408283828B4FF6FF7359
:1014F00003EA01231A4382837047F0B50C46154670
:10150000002100220026078C4EF6FF7C07EA0C071C
:101510000784818B028C4FF6FF7707EA043640F68A
:10152000FF4739404FF6FF7707EA05274FF6FF7C64
:101530000CEA033C47EA0C0739434DF6FF773A4083
:1015400046F480573A4381830284F0BD828B4FF684
:10155000F3731A408283828B0A4382837047F0B50B
:101560000C461546002100220026078C4FF6FF6C22
:1015700007EA0C070784818B028C4FF6FF7707EA96
:1015800004264FF60C7739404FF6FF7707EA03172A
:101590002F4339434FF6FF573A4046F480773A439A
:1015A00081830284F0BD028B4FF2FF331A40028325
:1015B000028B4FF6FF7303EA01231A43028370473D
:1015C0000010004000FCFFBF002C0140003401402F
:1015D000F0B50C461546002100220026078C4FF678
:1015E000EF7C07EA0C070784018B028C4FF6FF772C
:1015F00007EA041640F6FF4739404FF6FF7707EA3F
:10160000033739434FF6FF7707EA052739434FF68B
:10161000DF773A4046F010073A4301830284F0BD79
:10162000028B4FF6F3731A400283028B0A43028344
:101630007047F0B50C46154600210022068C4FF687
:10164000FE773E400684018B028C4FF60C763140CB
:101650007E1C06EA03162E4331437E1E324044F0C0
:101660000106324301830284F0BD70B505460C4685
:10167000208850B92389A28861882846FFF7D9FFBE
:10168000E1882846FFF7CCFF25E0208804280AD10E
:101690002389A28861882846FFF79AFFE1882846B7
:1016A000FFF781FF17E0208808280AD12389A28844
:1016B00061882846FFF753FFE1882846FFF746FF79
:1016C00009E02389A28861882846FFF716FFE18890
:1016D0002846FFF705FF70BD2DE9F04105460C4691
:1016E00000260127608808B9022600E00026A088AD
:1016F000012801D1022700E001272088A0B9238911
:10170000A28861882846FFF794FFE1882846FFF702
:1017100087FF23893A4631462846FFF759FFE1887B
:101720002846FFF740FF13E02389A28861882846F6
:10173000FFF74EFFE1882846FFF735FF23893A4639
:1017400031462846FFF775FFE1882846FFF768FF16
:10175000BDE8F0810A884B881A438B881A43CB88EE
:101760001A430B891A434B891A438B891A43A0F8F1
:10177000442070474FF6FF71818000210180C180B5
:101780004180017270470021018041808180C180C9
:10179000018141818181C1817047002101804180A7
:1017A000012181800021C1800181704700210180D9
:1017B00041808180C180018141818181704721B157
:1017C000028842F00102028004E0028840F2FE3307
:1017D0001A400280704731B1B0F8442042F4004210
:1017E000A0F8442005E0B0F84420C2F30E02A0F8AF
:1017F000442070471AB183890B43838102E08389B7
:101800008B43838170478182704741EA0203A0F8CD
:10181000483070471AB183890B43838102E0838982
:101820008B438381704701894FF6F8721140018123
:1018300070470A46002101894FF68F731940114302
:101840000181704730B504460D4629462046FFF712
:10185000F0FF208940F00700208130BD2DE9F041E4
:1018600004460D4616461F46602D06D13B46012212
:1018700031462046FFF7ACFE05E03B4601223146EB
:101880002046FFF7D6FE29462046FFF7D2FF2089E3
:1018900040F007002081BDE8F08170B50C460021C2
:1018A0000189C9B244EA02054FF6FF7606EA03262B
:1018B00035432943018170BD2DE9F04105460E46AF
:1018C00017469846002443463A4631462846FFF7D5
:1018D000E4FF2C894FF6F870044044F007044FF6FB
:1018E0008F70044044F070042C81BDE8F081F0B5A5
:1018F00004460D4616461F463B46324629462046BC
:10190000FFF7CBFF208940F480402081F0BD0185A6
:10191000828270470A460021018840F28F331940C5
:10192000114301807047F0B50C4615461E46002154
:10193000002200230189028B038C4FF6F87739408F
:1019400021434FF6FC473A4040F201173A434FF625
:10195000DD773B404FF6FF7707EA06172F433B43FF
:10196000018102830384F0BD0A460021018B4FF6FA
:101970008F7319401143018370470A460021018B80
:1019800048F6FF7319404FF6FF7303EA0223194329
:10199000018370470A460021818B4FF68F731940EF
:1019A0001143818370470A460021818B48F6FF73FB
:1019B00019404FF6FF7303EA0223194381837047EE
:1019C00021B1028842F08002028004E0028840F2E5
:1019D0007F331A400280704721B1828842F00402AE
:1019E000828004E082884FF6FB731A408280704741
:1019F00021B1828842F00802828004E082884FF69A
:101A0000F7731A408280704721B1828842F0010248
:101A1000828004E082884FF6FE731A40828070470D
:101A20000A460021018B4FF6F773194011430183D9
:101A300070470A460021018B4FF2FF7319404FF6A1
:101A4000FF7303EA02231943018370470A4600210A
:101A5000818B4FF6F77319401143818370470A4613
:101A60000021818B4FF2FF7319404FF6FF7303EA99
:101A700002231943818370470A460021018B4FF6E8
:101A8000FB7319401143018370470A460021018B03
:101A90004FF6FF3319404FF6FF7303EA0223194351
:101AA000018370470A460021818B4FF6FB73194072
:101AB0001143818370470A460021818B4FF6FF3323
:101AC00019404FF6FF7303EA0223194381837047DD
:101AD0000A460021018B4FF67F73194011430183A1
:101AE00070470A460021018BC1F30E014FF6FF73C8
:101AF00003EA02231943018370470A460021818BC0
:101B00004FF67F7319401143818370470A460021C5
:101B1000818BC1F30E014FF6FF7303EA02231943D1
:101B2000818370470A460021018C4FF6FD731940EE
:101B30001143018470470A460021018C4FF6F77368
:101B400019401143018470470A460021018C4FF669
:101B5000DF7319404FF6FF7303EA02131943018440
:101B600070470A460021018C4FF67F7319404FF6EB
:101B7000FF7303EA02131943018470470A460021E8
:101B8000018C4FF6FF5319404FF6FF7303EA02230F
:101B90001943018470470A460021018C4FF2FF73FC
:101BA00019404FF6FF7303EA02231943018470477B
:101BB0000A460021018C4DF6FF7319404FF6FF7362
:101BC00003EA023319430184704710B5038C0124E2
:101BD0008C40A3430384038C02FA01F4A4B2234390
:101BE000038410BD10B5038C04248C40A3430384EC
:101BF000038C02FA01F4A4B22343038410BD30B570
:101C0000038C01248C40A343038409B1082918D113
:101C100000F1180303EB61031B684FF68F74234038
:101C200000F1180404EB6104236000F1180303EBD6
:101C300061031B68134300F1180404EB6104236083
:101C40001FE00B1FC3F34E0400F118031B5948F6A5
:101C5000FF7423400C1FC4F34E0500F118046351B8
:101C60000B1FC3F34E0400F118031B594FF6FF740A
:101C700004EA022423430C1FC4F34E0500F11804A8
:101C8000635130BD21B1028842F00202028004E0BB
:101C9000028840F2FD331A400280704721B1028869
:101CA00042F00402028004E0028840F2FB331A4052
:101CB0000280704721B1828842F08002828004E075
:101CC00082884FF67F731A4082807047028840F204
:101CD000F7331A40028002880A43028070478288E4
:101CE0004FF68F731A40828082880A438280704741
:101CF00002894FF6F8731A40028102890A43028171
:101D0000704702894FF67F731A40028102890A43A5
:101D10000281704781847047818570478186704752
:101D20000187704781877047A0F84010704702888C
:101D3000D2B2028002880A43028070470146888E30
:101D400070470146088F70470146888F70470146EB
:101D5000B1F8400070470146888C70470146088DF5
:101D6000704702460020138A0B400BB1012000E0AF
:101D700000207047CA430282704730B502460020F7
:101D800000230024158A05EA0103958905EA010468
:101D900013B10CB1012000E0002030BDCA43028223
:101DA0007047000000204C490860091D0860091DAB
:101DB0000860091D086049484749143108607047A8
:101DC0008179002946D04449096802689143424A12
:101DD0001160111D0968026891433F4A121D11608C
:101DE00001793F4A1144D1F8001402681143027985
:101DF0003B4B1A44C2F8001437490831096802689D
:101E00009143354A08321160111D096802689143F7
:101E1000314A0C321160417910290ED1111F096825
:101E2000026811432C4A08321160111D09680268CA
:101E30001143294A0C32116018E04179284A1144B3
:101E4000D1F80014026811434279254B1A44C2F8B4
:101E500000140BE00179224A1144D1F80014026801
:101E6000914302791E4B1A44C2F8001470470021B6
:101E7000016001710C214171002181717047164987
:101E8000103109680143144A10321160704701464D
:101E90000020114A143212680A400AB1012000E001
:101EA000002070470C49143108607047014600203B
:101EB0000022094B1B6803EA0102074B14331B681D
:101EC0000B4013B10AB1012000E000207047024925
:101ED000143108607047000000040140FFFF070054
:101EE000000001400E49086070470D494860704786
:101EF0000B49886070474AF6AA2009490860704774
:101F00004CF6CC4006490860704701460020044A60
:101F1000D2680A400AB1012000E0002070470000AA
:101F2000003000400CB50020019000904748006848
:101F300040F480304549086000BF4448006800F420
:101F4000003000900198401C0190009818B9019849
:101F5000B0F5A06FF1D13D48006800F4003010B139
:101F60000120009001E0002000900098012844D159
:101F70003748006840F0100035490860084600689E
:101F800020F0030008600846006840F00200086086
:101F90002E4840682D494860084640684860084619
:101FA000406840F4806048600846406820F47C1037
:101FB00048600846406840F4E810486008460068F9
:101FC00040F08070086000BF2048006800F000709A
:101FD0000028F9D01D48406820F003001B494860E4
:101FE0000846406840F00200486000BF174840685B
:101FF00000F00C000828F9D101E000BFFEE70CBD9D
:1020000010B5FFF78FFF10BD10B51048006840F005
:1020100001000E490860084640680E4908400B4917
:102020004860084600680C490840084908600846AE
:10203000006820F4802008600846406820F4FE0014
:10204000486000208860FFF7DBFF10BD00100240F1
:10205000002002400000FFF8FFFFF6FE064C074D8F
:1020600006E0E06840F0010394E807009847103468
:10207000AC42F6D3FEF760F8A0200008C0200008AC
:1020800002E008C8121F08C1002AFAD17047704741
:10209000002001E001C1121F002AFBD1704700009F
:1020A000C0200008000000201C0000008020000864
:1020B000DC2000081C000020240200009020000802
:1020C0000000000000000000000000000102030406
:0C20D000010203040607080902040608C8
:0400000508000147A7
:00000001FF
